{"abi":[{"type":"constructor","inputs":[{"name":"_govToken","type":"address","internalType":"address"},{"name":"_rewardRate","type":"uint256","internalType":"uint256"}],"stateMutability":"nonpayable"},{"type":"receive","stateMutability":"payable"},{"type":"function","name":"calculateRewards","inputs":[{"name":"stakerAddr","type":"address","internalType":"address"}],"outputs":[{"name":"","type":"uint256","internalType":"uint256"}],"stateMutability":"view"},{"type":"function","name":"claimRewards","inputs":[],"outputs":[],"stateMutability":"nonpayable"},{"type":"function","name":"getStakerInfo","inputs":[{"name":"_user","type":"address","internalType":"address"}],"outputs":[{"name":"stakedAmount","type":"uint256","internalType":"uint256"},{"name":"pendingRewards","type":"uint256","internalType":"uint256"},{"name":"totalRewardsClaimed","type":"uint256","internalType":"uint256"}],"stateMutability":"view"},{"type":"function","name":"govToken","inputs":[],"outputs":[{"name":"","type":"address","internalType":"contract GovernanceToken"}],"stateMutability":"view"},{"type":"function","name":"owner","inputs":[],"outputs":[{"name":"","type":"address","internalType":"address"}],"stateMutability":"view"},{"type":"function","name":"renounceOwnership","inputs":[],"outputs":[],"stateMutability":"nonpayable"},{"type":"function","name":"rewardRate","inputs":[],"outputs":[{"name":"","type":"uint256","internalType":"uint256"}],"stateMutability":"view"},{"type":"function","name":"setRewardRate","inputs":[{"name":"_newRate","type":"uint256","internalType":"uint256"}],"outputs":[],"stateMutability":"nonpayable"},{"type":"function","name":"stake","inputs":[],"outputs":[],"stateMutability":"payable"},{"type":"function","name":"stakers","inputs":[{"name":"","type":"address","internalType":"address"}],"outputs":[{"name":"stakedAmount","type":"uint256","internalType":"uint256"},{"name":"stakingStartTime","type":"uint256","internalType":"uint256"},{"name":"lastRewardClaimTime","type":"uint256","internalType":"uint256"},{"name":"totalRewardsClaimed","type":"uint256","internalType":"uint256"}],"stateMutability":"view"},{"type":"function","name":"totalStaked","inputs":[],"outputs":[{"name":"","type":"uint256","internalType":"uint256"}],"stateMutability":"view"},{"type":"function","name":"transferOwnership","inputs":[{"name":"newOwner","type":"address","internalType":"address"}],"outputs":[],"stateMutability":"nonpayable"},{"type":"function","name":"unstake","inputs":[],"outputs":[],"stateMutability":"nonpayable"},{"type":"function","name":"withdrawEth","inputs":[{"name":"_amount","type":"uint256","internalType":"uint256"}],"outputs":[],"stateMutability":"nonpayable"},{"type":"event","name":"OwnershipTransferred","inputs":[{"name":"previousOwner","type":"address","indexed":true,"internalType":"address"},{"name":"newOwner","type":"address","indexed":true,"internalType":"address"}],"anonymous":false},{"type":"event","name":"RewardClaimed","inputs":[{"name":"user","type":"address","indexed":true,"internalType":"address"},{"name":"rewardAmount","type":"uint256","indexed":false,"internalType":"uint256"}],"anonymous":false},{"type":"event","name":"RewardRateUpdated","inputs":[{"name":"newRate","type":"uint256","indexed":false,"internalType":"uint256"}],"anonymous":false},{"type":"event","name":"Staked","inputs":[{"name":"user","type":"address","indexed":true,"internalType":"address"},{"name":"amount","type":"uint256","indexed":false,"internalType":"uint256"}],"anonymous":false},{"type":"event","name":"Unstaked","inputs":[{"name":"user","type":"address","indexed":true,"internalType":"address"},{"name":"amount","type":"uint256","indexed":false,"internalType":"uint256"}],"anonymous":false},{"type":"error","name":"OwnableInvalidOwner","inputs":[{"name":"owner","type":"address","internalType":"address"}]},{"type":"error","name":"OwnableUnauthorizedAccount","inputs":[{"name":"account","type":"address","internalType":"address"}]},{"type":"error","name":"ReentrancyGuardReentrantCall","inputs":[]}],"bytecode":{"object":"0x608060405234801561001057600080fd5b50604051611ac1380380611ac1833981810160405281019061003291906102d7565b33600073ffffffffffffffffffffffffffffffffffffffff168173ffffffffffffffffffffffffffffffffffffffff16036100a55760006040517f1e4fbdf700000000000000000000000000000000000000000000000000000000815260040161009c9190610326565b60405180910390fd5b6100b48161017a60201b60201c565b5060018081905550600073ffffffffffffffffffffffffffffffffffffffff168273ffffffffffffffffffffffffffffffffffffffff160361012b576040517f08c379a00000000000000000000000000000000000000000000000000000000081526004016101229061039e565b60405180910390fd5b81600260006101000a81548173ffffffffffffffffffffffffffffffffffffffff021916908373ffffffffffffffffffffffffffffffffffffffff1602179055508060038190555050506103be565b60008060009054906101000a900473ffffffffffffffffffffffffffffffffffffffff169050816000806101000a81548173ffffffffffffffffffffffffffffffffffffffff021916908373ffffffffffffffffffffffffffffffffffffffff1602179055508173ffffffffffffffffffffffffffffffffffffffff168173ffffffffffffffffffffffffffffffffffffffff167f8be0079c531659141344cd1fd0a4f28419497f9722a3daafe3b4186f6b6457e060405160405180910390a35050565b600080fd5b600073ffffffffffffffffffffffffffffffffffffffff82169050919050565b600061026e82610243565b9050919050565b61027e81610263565b811461028957600080fd5b50565b60008151905061029b81610275565b92915050565b6000819050919050565b6102b4816102a1565b81146102bf57600080fd5b50565b6000815190506102d1816102ab565b92915050565b600080604083850312156102ee576102ed61023e565b5b60006102fc8582860161028c565b925050602061030d858286016102c2565b9150509250929050565b61032081610263565b82525050565b600060208201905061033b6000830184610317565b92915050565b600082825260208201905092915050565b7f496e76616c696420746f6b656e20616464726573730000000000000000000000600082015250565b6000610388601583610341565b915061039382610352565b602082019050919050565b600060208201905081810360008301526103b78161037b565b9050919050565b6116f4806103cd6000396000f3fe6080604052600436106100e15760003560e01c80637b0a47ee1161007f5780639168ae72116100595780639168ae72146102645780639e447fc6146102a4578063c311d049146102cd578063f2fde38b146102f6576100e8565b80637b0a47ee146101e3578063817b1cd21461020e5780638da5cb5b14610239576100e8565b80633a4b66f1116100bb5780633a4b66f11461014657806364ab867514610150578063715018a61461018d578063733bdef0146101a4576100e8565b806305268cff146100ed5780632def662014610118578063372500ab1461012f576100e8565b366100e857005b600080fd5b3480156100f957600080fd5b5061010261031f565b60405161010f9190611053565b60405180910390f35b34801561012457600080fd5b5061012d610345565b005b34801561013b57600080fd5b5061014461062d565b005b61014e61081c565b005b34801561015c57600080fd5b50610177600480360381019061017291906110b1565b610a6c565b60405161018491906110f7565b60405180910390f35b34801561019957600080fd5b506101a2610b4d565b005b3480156101b057600080fd5b506101cb60048036038101906101c691906110b1565b610b61565b6040516101da93929190611112565b60405180910390f35b3480156101ef57600080fd5b506101f8610bfc565b60405161020591906110f7565b60405180910390f35b34801561021a57600080fd5b50610223610c02565b60405161023091906110f7565b60405180910390f35b34801561024557600080fd5b5061024e610c08565b60405161025b9190611158565b60405180910390f35b34801561027057600080fd5b5061028b600480360381019061028691906110b1565b610c31565b60405161029b9493929190611173565b60405180910390f35b3480156102b057600080fd5b506102cb60048036038101906102c691906111e4565b610c61565b005b3480156102d957600080fd5b506102f460048036038101906102ef91906111e4565b610caa565b005b34801561030257600080fd5b5061031d600480360381019061031891906110b1565b610dac565b005b600260009054906101000a900473ffffffffffffffffffffffffffffffffffffffff1681565b61034d610e32565b6000600560003373ffffffffffffffffffffffffffffffffffffffff1673ffffffffffffffffffffffffffffffffffffffff168152602001908152602001600020905060008160000154116103d7576040517f08c379a00000000000000000000000000000000000000000000000000000000081526004016103ce9061126e565b60405180910390fd5b60008160000154905060006103eb33610a6c565b90506000836000018190555060008360010181905550428360020181905550816004600082825461041c91906112bd565b925050819055506000811115610525578083600301600082825461044091906112f1565b92505081905550600260009054906101000a900473ffffffffffffffffffffffffffffffffffffffff1673ffffffffffffffffffffffffffffffffffffffff166379c6506833836040518363ffffffff1660e01b81526004016104a4929190611325565b600060405180830381600087803b1580156104be57600080fd5b505af11580156104d2573d6000803e3d6000fd5b505050503373ffffffffffffffffffffffffffffffffffffffff167f106f923f993c2149d49b4255ff723acafa1f2d94393f561d3eda32ae348f72418260405161051c91906110f7565b60405180910390a25b60003373ffffffffffffffffffffffffffffffffffffffff168360405161054b9061137f565b60006040518083038185875af1925050503d8060008114610588576040519150601f19603f3d011682016040523d82523d6000602084013e61058d565b606091505b50509050806105d1576040517f08c379a00000000000000000000000000000000000000000000000000000000081526004016105c8906113e0565b60405180910390fd5b3373ffffffffffffffffffffffffffffffffffffffff167f0f5bb82176feb1b5e747e28471aa92156a04d9f3ab9f45f28e2d704232b93f758460405161061791906110f7565b60405180910390a25050505061062b610e78565b565b610635610e32565b6000600560003373ffffffffffffffffffffffffffffffffffffffff1673ffffffffffffffffffffffffffffffffffffffff168152602001908152602001600020905060008160000154116106bf576040517f08c379a00000000000000000000000000000000000000000000000000000000081526004016106b69061144c565b60405180910390fd5b60006106ca33610a6c565b90506000811161070f576040517f08c379a0000000000000000000000000000000000000000000000000000000008152600401610706906114b8565b60405180910390fd5b4282600201819055508082600301600082825461072c91906112f1565b92505081905550600260009054906101000a900473ffffffffffffffffffffffffffffffffffffffff1673ffffffffffffffffffffffffffffffffffffffff166379c6506833836040518363ffffffff1660e01b8152600401610790929190611325565b600060405180830381600087803b1580156107aa57600080fd5b505af11580156107be573d6000803e3d6000fd5b505050503373ffffffffffffffffffffffffffffffffffffffff167f106f923f993c2149d49b4255ff723acafa1f2d94393f561d3eda32ae348f72418260405161080891906110f7565b60405180910390a2505061081a610e78565b565b610824610e32565b60003411610867576040517f08c379a000000000000000000000000000000000000000000000000000000000815260040161085e90611524565b60405180910390fd5b6000600560003373ffffffffffffffffffffffffffffffffffffffff1673ffffffffffffffffffffffffffffffffffffffff16815260200190815260200160002090506000816000015411156109cc5760006108c233610a6c565b905060008111156109c657600260009054906101000a900473ffffffffffffffffffffffffffffffffffffffff1673ffffffffffffffffffffffffffffffffffffffff166379c6506833836040518363ffffffff1660e01b815260040161092a929190611325565b600060405180830381600087803b15801561094457600080fd5b505af1158015610958573d6000803e3d6000fd5b505050508082600301600082825461097091906112f1565b925050819055503373ffffffffffffffffffffffffffffffffffffffff167f106f923f993c2149d49b4255ff723acafa1f2d94393f561d3eda32ae348f7241826040516109bd91906110f7565b60405180910390a25b506109d6565b4281600101819055505b348160000160008282546109ea91906112f1565b925050819055504281600201819055503460046000828254610a0c91906112f1565b925050819055503373ffffffffffffffffffffffffffffffffffffffff167f9e71bc8eea02a63969f509818f2dafb9254532904319f9dbda79b67bd34a5f3d34604051610a5991906110f7565b60405180910390a250610a6a610e78565b565b600080600560008473ffffffffffffffffffffffffffffffffffffffff1673ffffffffffffffffffffffffffffffffffffffff16815260200190815260200160002060405180608001604052908160008201548152602001600182015481526020016002820154815260200160038201548152505090506000816000015103610af9576000915050610b48565b6000816040015142610b0b91906112bd565b90506000670de0b6b3a7640000826003548560000151610b2b9190611544565b610b359190611544565b610b3f91906115b5565b90508093505050505b919050565b610b55610e81565b610b5f6000610f08565b565b600080600080600560008673ffffffffffffffffffffffffffffffffffffffff1673ffffffffffffffffffffffffffffffffffffffff168152602001908152602001600020604051806080016040529081600082015481526020016001820154815260200160028201548152602001600382015481525050905080600001519350610beb85610a6c565b925080606001519150509193909250565b60035481565b60045481565b60008060009054906101000a900473ffffffffffffffffffffffffffffffffffffffff16905090565b60056020528060005260406000206000915090508060000154908060010154908060020154908060030154905084565b610c69610e81565b806003819055507f41d466ebd06fb97e7786086ac8b69b7eb7da798592036251291d34e9791cde0181604051610c9f91906110f7565b60405180910390a150565b610cb2610e81565b47811115610cf5576040517f08c379a0000000000000000000000000000000000000000000000000000000008152600401610cec90611632565b60405180910390fd5b6000610cff610c08565b73ffffffffffffffffffffffffffffffffffffffff1682604051610d229061137f565b60006040518083038185875af1925050503d8060008114610d5f576040519150601f19603f3d011682016040523d82523d6000602084013e610d64565b606091505b5050905080610da8576040517f08c379a0000000000000000000000000000000000000000000000000000000008152600401610d9f9061169e565b60405180910390fd5b5050565b610db4610e81565b600073ffffffffffffffffffffffffffffffffffffffff168173ffffffffffffffffffffffffffffffffffffffff1603610e265760006040517f1e4fbdf7000000000000000000000000000000000000000000000000000000008152600401610e1d9190611158565b60405180910390fd5b610e2f81610f08565b50565b600260015403610e6e576040517f3ee5aeb500000000000000000000000000000000000000000000000000000000815260040160405180910390fd5b6002600181905550565b60018081905550565b610e89610fcc565b73ffffffffffffffffffffffffffffffffffffffff16610ea7610c08565b73ffffffffffffffffffffffffffffffffffffffff1614610f0657610eca610fcc565b6040517f118cdaa7000000000000000000000000000000000000000000000000000000008152600401610efd9190611158565b60405180910390fd5b565b60008060009054906101000a900473ffffffffffffffffffffffffffffffffffffffff169050816000806101000a81548173ffffffffffffffffffffffffffffffffffffffff021916908373ffffffffffffffffffffffffffffffffffffffff1602179055508173ffffffffffffffffffffffffffffffffffffffff168173ffffffffffffffffffffffffffffffffffffffff167f8be0079c531659141344cd1fd0a4f28419497f9722a3daafe3b4186f6b6457e060405160405180910390a35050565b600033905090565b600073ffffffffffffffffffffffffffffffffffffffff82169050919050565b6000819050919050565b600061101961101461100f84610fd4565b610ff4565b610fd4565b9050919050565b600061102b82610ffe565b9050919050565b600061103d82611020565b9050919050565b61104d81611032565b82525050565b60006020820190506110686000830184611044565b92915050565b600080fd5b600061107e82610fd4565b9050919050565b61108e81611073565b811461109957600080fd5b50565b6000813590506110ab81611085565b92915050565b6000602082840312156110c7576110c661106e565b5b60006110d58482850161109c565b91505092915050565b6000819050919050565b6110f1816110de565b82525050565b600060208201905061110c60008301846110e8565b92915050565b600060608201905061112760008301866110e8565b61113460208301856110e8565b61114160408301846110e8565b949350505050565b61115281611073565b82525050565b600060208201905061116d6000830184611149565b92915050565b600060808201905061118860008301876110e8565b61119560208301866110e8565b6111a260408301856110e8565b6111af60608301846110e8565b95945050505050565b6111c1816110de565b81146111cc57600080fd5b50565b6000813590506111de816111b8565b92915050565b6000602082840312156111fa576111f961106e565b5b6000611208848285016111cf565b91505092915050565b600082825260208201905092915050565b7f4e6f7468696e6720746f20756e7374616b650000000000000000000000000000600082015250565b6000611258601283611211565b915061126382611222565b602082019050919050565b600060208201905081810360008301526112878161124b565b9050919050565b7f4e487b7100000000000000000000000000000000000000000000000000000000600052601160045260246000fd5b60006112c8826110de565b91506112d3836110de565b92508282039050818111156112eb576112ea61128e565b5b92915050565b60006112fc826110de565b9150611307836110de565b925082820190508082111561131f5761131e61128e565b5b92915050565b600060408201905061133a6000830185611149565b61134760208301846110e8565b9392505050565b600081905092915050565b50565b600061136960008361134e565b915061137482611359565b600082019050919050565b600061138a8261135c565b9150819050919050565b7f455448207472616e73666572206661696c656400000000000000000000000000600082015250565b60006113ca601383611211565b91506113d582611394565b602082019050919050565b600060208201905081810360008301526113f9816113bd565b9050919050565b7f4e6f20616374697665207374616b650000000000000000000000000000000000600082015250565b6000611436600f83611211565b915061144182611400565b602082019050919050565b6000602082019050818103600083015261146581611429565b9050919050565b7f4e6f207265776172647320617661696c61626c65000000000000000000000000600082015250565b60006114a2601483611211565b91506114ad8261146c565b602082019050919050565b600060208201905081810360008301526114d181611495565b9050919050565b7f4d757374207374616b65206d6f7265207468616e203000000000000000000000600082015250565b600061150e601683611211565b9150611519826114d8565b602082019050919050565b6000602082019050818103600083015261153d81611501565b9050919050565b600061154f826110de565b915061155a836110de565b9250828202611568816110de565b9150828204841483151761157f5761157e61128e565b5b5092915050565b7f4e487b7100000000000000000000000000000000000000000000000000000000600052601260045260246000fd5b60006115c0826110de565b91506115cb836110de565b9250826115db576115da611586565b5b828204905092915050565b7f496e73756666696369656e742062616c616e6365000000000000000000000000600082015250565b600061161c601483611211565b9150611627826115e6565b602082019050919050565b6000602082019050818103600083015261164b8161160f565b9050919050565b7f5769746864726177206661696c65640000000000000000000000000000000000600082015250565b6000611688600f83611211565b915061169382611652565b602082019050919050565b600060208201905081810360008301526116b78161167b565b905091905056fea26469706673582212204009baba02adad82d25913b6c79c1adb857081272d1a1e4576a9a52291bbdf0564736f6c634300081e0033","linkReferences":{}},"methodIdentifiers":{"calculateRewards(address)":"64ab8675","claimRewards()":"372500ab","getStakerInfo(address)":"733bdef0","govToken()":"05268cff","owner()":"8da5cb5b","renounceOwnership()":"715018a6","rewardRate()":"7b0a47ee","setRewardRate(uint256)":"9e447fc6","stake()":"3a4b66f1","stakers(address)":"9168ae72","totalStaked()":"817b1cd2","transferOwnership(address)":"f2fde38b","unstake()":"2def6620","withdrawEth(uint256)":"c311d049"},"id":9}