{"abi":[{"type":"constructor","inputs":[{"name":"initialSupply","type":"uint256","internalType":"uint256"}],"stateMutability":"nonpayable"},{"type":"function","name":"allowance","inputs":[{"name":"owner","type":"address","internalType":"address"},{"name":"spender","type":"address","internalType":"address"}],"outputs":[{"name":"","type":"uint256","internalType":"uint256"}],"stateMutability":"view"},{"type":"function","name":"approve","inputs":[{"name":"spender","type":"address","internalType":"address"},{"name":"value","type":"uint256","internalType":"uint256"}],"outputs":[{"name":"","type":"bool","internalType":"bool"}],"stateMutability":"nonpayable"},{"type":"function","name":"balanceOf","inputs":[{"name":"account","type":"address","internalType":"address"}],"outputs":[{"name":"","type":"uint256","internalType":"uint256"}],"stateMutability":"view"},{"type":"function","name":"burn","inputs":[{"name":"value","type":"uint256","internalType":"uint256"}],"outputs":[],"stateMutability":"nonpayable"},{"type":"function","name":"burnFrom","inputs":[{"name":"account","type":"address","internalType":"address"},{"name":"value","type":"uint256","internalType":"uint256"}],"outputs":[],"stateMutability":"nonpayable"},{"type":"function","name":"burnToken","inputs":[{"name":"_amount","type":"uint256","internalType":"uint256"}],"outputs":[],"stateMutability":"nonpayable"},{"type":"function","name":"decimals","inputs":[],"outputs":[{"name":"","type":"uint8","internalType":"uint8"}],"stateMutability":"pure"},{"type":"function","name":"mintToken","inputs":[{"name":"_to","type":"address","internalType":"address"},{"name":"_amount","type":"uint256","internalType":"uint256"}],"outputs":[],"stateMutability":"nonpayable"},{"type":"function","name":"name","inputs":[],"outputs":[{"name":"","type":"string","internalType":"string"}],"stateMutability":"view"},{"type":"function","name":"owner","inputs":[],"outputs":[{"name":"","type":"address","internalType":"address"}],"stateMutability":"view"},{"type":"function","name":"renounceOwnership","inputs":[],"outputs":[],"stateMutability":"nonpayable"},{"type":"function","name":"symbol","inputs":[],"outputs":[{"name":"","type":"string","internalType":"string"}],"stateMutability":"view"},{"type":"function","name":"totalSupply","inputs":[],"outputs":[{"name":"","type":"uint256","internalType":"uint256"}],"stateMutability":"view"},{"type":"function","name":"transfer","inputs":[{"name":"to","type":"address","internalType":"address"},{"name":"amount","type":"uint256","internalType":"uint256"}],"outputs":[{"name":"","type":"bool","internalType":"bool"}],"stateMutability":"nonpayable"},{"type":"function","name":"transferFrom","inputs":[{"name":"from","type":"address","internalType":"address"},{"name":"to","type":"address","internalType":"address"},{"name":"value","type":"uint256","internalType":"uint256"}],"outputs":[{"name":"","type":"bool","internalType":"bool"}],"stateMutability":"nonpayable"},{"type":"function","name":"transferOwnership","inputs":[{"name":"newOwner","type":"address","internalType":"address"}],"outputs":[],"stateMutability":"nonpayable"},{"type":"event","name":"Approval","inputs":[{"name":"owner","type":"address","indexed":true,"internalType":"address"},{"name":"spender","type":"address","indexed":true,"internalType":"address"},{"name":"value","type":"uint256","indexed":false,"internalType":"uint256"}],"anonymous":false},{"type":"event","name":"OwnershipTransferred","inputs":[{"name":"previousOwner","type":"address","indexed":true,"internalType":"address"},{"name":"newOwner","type":"address","indexed":true,"internalType":"address"}],"anonymous":false},{"type":"event","name":"TokensBurned","inputs":[{"name":"from","type":"address","indexed":true,"internalType":"address"},{"name":"amount","type":"uint256","indexed":false,"internalType":"uint256"}],"anonymous":false},{"type":"event","name":"TokensMinted","inputs":[{"name":"to","type":"address","indexed":true,"internalType":"address"},{"name":"amount","type":"uint256","indexed":false,"internalType":"uint256"}],"anonymous":false},{"type":"event","name":"Transfer","inputs":[{"name":"from","type":"address","indexed":true,"internalType":"address"},{"name":"to","type":"address","indexed":true,"internalType":"address"},{"name":"value","type":"uint256","indexed":false,"internalType":"uint256"}],"anonymous":false},{"type":"error","name":"ERC20InsufficientAllowance","inputs":[{"name":"spender","type":"address","internalType":"address"},{"name":"allowance","type":"uint256","internalType":"uint256"},{"name":"needed","type":"uint256","internalType":"uint256"}]},{"type":"error","name":"ERC20InsufficientBalance","inputs":[{"name":"sender","type":"address","internalType":"address"},{"name":"balance","type":"uint256","internalType":"uint256"},{"name":"needed","type":"uint256","internalType":"uint256"}]},{"type":"error","name":"ERC20InvalidApprover","inputs":[{"name":"approver","type":"address","internalType":"address"}]},{"type":"error","name":"ERC20InvalidReceiver","inputs":[{"name":"receiver","type":"address","internalType":"address"}]},{"type":"error","name":"ERC20InvalidSender","inputs":[{"name":"sender","type":"address","internalType":"address"}]},{"type":"error","name":"ERC20InvalidSpender","inputs":[{"name":"spender","type":"address","internalType":"address"}]},{"type":"error","name":"OwnableInvalidOwner","inputs":[{"name":"owner","type":"address","internalType":"address"}]},{"type":"error","name":"OwnableUnauthorizedAccount","inputs":[{"name":"account","type":"address","internalType":"address"}]}],"bytecode":{"object":"0x608060405234801561001057600080fd5b5060405161222d38038061222d83398181016040528101906100329190610534565b336040518060400160405280601081526020017f476f7665726e616e636520546f6b656e000000000000000000000000000000008152506040518060400160405280600381526020017f474f56000000000000000000000000000000000000000000000000000000000081525081600390816100ae91906107a7565b5080600490816100be91906107a7565b505050600073ffffffffffffffffffffffffffffffffffffffff168173ffffffffffffffffffffffffffffffffffffffff16036101335760006040517f1e4fbdf700000000000000000000000000000000000000000000000000000000815260040161012a91906108ba565b60405180910390fd5b6101428161017d60201b60201c565b506101773361015561024360201b60201c565b600a6101619190610a44565b8361016c9190610a8f565b61024c60201b60201c565b50610b66565b6000600560009054906101000a900473ffffffffffffffffffffffffffffffffffffffff16905081600560006101000a81548173ffffffffffffffffffffffffffffffffffffffff021916908373ffffffffffffffffffffffffffffffffffffffff1602179055508173ffffffffffffffffffffffffffffffffffffffff168173ffffffffffffffffffffffffffffffffffffffff167f8be0079c531659141344cd1fd0a4f28419497f9722a3daafe3b4186f6b6457e060405160405180910390a35050565b60006012905090565b600073ffffffffffffffffffffffffffffffffffffffff168273ffffffffffffffffffffffffffffffffffffffff16036102be5760006040517fec442f050000000000000000000000000000000000000000000000000000000081526004016102b591906108ba565b60405180910390fd5b6102d0600083836102d460201b60201c565b5050565b600073ffffffffffffffffffffffffffffffffffffffff168373ffffffffffffffffffffffffffffffffffffffff160361032657806002600082825461031a9190610ad1565b925050819055506103f9565b60008060008573ffffffffffffffffffffffffffffffffffffffff1673ffffffffffffffffffffffffffffffffffffffff168152602001908152602001600020549050818110156103b2578381836040517fe450d38c0000000000000000000000000000000000000000000000000000000081526004016103a993929190610b14565b60405180910390fd5b8181036000808673ffffffffffffffffffffffffffffffffffffffff1673ffffffffffffffffffffffffffffffffffffffff16815260200190815260200160002081905550505b600073ffffffffffffffffffffffffffffffffffffffff168273ffffffffffffffffffffffffffffffffffffffff1603610442578060026000828254039250508190555061048f565b806000808473ffffffffffffffffffffffffffffffffffffffff1673ffffffffffffffffffffffffffffffffffffffff168152602001908152602001600020600082825401925050819055505b8173ffffffffffffffffffffffffffffffffffffffff168373ffffffffffffffffffffffffffffffffffffffff167fddf252ad1be2c89b69c2b068fc378daa952ba7f163c4a11628f55a4df523b3ef836040516104ec9190610b4b565b60405180910390a3505050565b600080fd5b6000819050919050565b610511816104fe565b811461051c57600080fd5b50565b60008151905061052e81610508565b92915050565b60006020828403121561054a576105496104f9565b5b60006105588482850161051f565b91505092915050565b600081519050919050565b7f4e487b7100000000000000000000000000000000000000000000000000000000600052604160045260246000fd5b7f4e487b7100000000000000000000000000000000000000000000000000000000600052602260045260246000fd5b600060028204905060018216806105e257607f821691505b6020821081036105f5576105f461059b565b5b50919050565b60008190508160005260206000209050919050565b60006020601f8301049050919050565b600082821b905092915050565b60006008830261065d7fffffffffffffffffffffffffffffffffffffffffffffffffffffffffffffffff82610620565b6106678683610620565b95508019841693508086168417925050509392505050565b6000819050919050565b60006106a461069f61069a846104fe565b61067f565b6104fe565b9050919050565b6000819050919050565b6106be83610689565b6106d26106ca826106ab565b84845461062d565b825550505050565b600090565b6106e76106da565b6106f28184846106b5565b505050565b5b818110156107165761070b6000826106df565b6001810190506106f8565b5050565b601f82111561075b5761072c816105fb565b61073584610610565b81016020851015610744578190505b61075861075085610610565b8301826106f7565b50505b505050565b600082821c905092915050565b600061077e60001984600802610760565b1980831691505092915050565b6000610797838361076d565b9150826002028217905092915050565b6107b082610561565b67ffffffffffffffff8111156107c9576107c861056c565b5b6107d382546105ca565b6107de82828561071a565b600060209050601f83116001811461081157600084156107ff578287015190505b610809858261078b565b865550610871565b601f19841661081f866105fb565b60005b8281101561084757848901518255600182019150602085019450602081019050610822565b868310156108645784890151610860601f89168261076d565b8355505b6001600288020188555050505b505050505050565b600073ffffffffffffffffffffffffffffffffffffffff82169050919050565b60006108a482610879565b9050919050565b6108b481610899565b82525050565b60006020820190506108cf60008301846108ab565b92915050565b7f4e487b7100000000000000000000000000000000000000000000000000000000600052601160045260246000fd5b60008160011c9050919050565b6000808291508390505b600185111561095b57808604811115610937576109366108d5565b5b60018516156109465780820291505b808102905061095485610904565b945061091b565b94509492505050565b6000826109745760019050610a30565b816109825760009050610a30565b816001811461099857600281146109a2576109d1565b6001915050610a30565b60ff8411156109b4576109b36108d5565b5b8360020a9150848211156109cb576109ca6108d5565b5b50610a30565b5060208310610133831016604e8410600b8410161715610a065782820a905083811115610a0157610a006108d5565b5b610a30565b610a138484846001610911565b92509050818404811115610a2a57610a296108d5565b5b81810290505b9392505050565b600060ff82169050919050565b6000610a4f826104fe565b9150610a5a83610a37565b9250610a877fffffffffffffffffffffffffffffffffffffffffffffffffffffffffffffffff8484610964565b905092915050565b6000610a9a826104fe565b9150610aa5836104fe565b9250828202610ab3816104fe565b91508282048414831517610aca57610ac96108d5565b5b5092915050565b6000610adc826104fe565b9150610ae7836104fe565b9250828201905080821115610aff57610afe6108d5565b5b92915050565b610b0e816104fe565b82525050565b6000606082019050610b2960008301866108ab565b610b366020830185610b05565b610b436040830184610b05565b949350505050565b6000602082019050610b606000830184610b05565b92915050565b6116b880610b756000396000f3fe608060405234801561001057600080fd5b50600436106101005760003560e01c806379c650681161009757806395d89b411161006657806395d89b4114610287578063a9059cbb146102a5578063dd62ed3e146102d5578063f2fde38b1461030557610100565b806379c650681461021557806379cc6790146102315780637b47ec1a1461024d5780638da5cb5b1461026957610100565b8063313ce567116100d3578063313ce567146101a157806342966c68146101bf57806370a08231146101db578063715018a61461020b57610100565b806306fdde0314610105578063095ea7b31461012357806318160ddd1461015357806323b872dd14610171575b600080fd5b61010d610321565b60405161011a919061108d565b60405180910390f35b61013d60048036038101906101389190611148565b6103b3565b60405161014a91906111a3565b60405180910390f35b61015b6103d6565b60405161016891906111cd565b60405180910390f35b61018b600480360381019061018691906111e8565b6103e0565b60405161019891906111a3565b60405180910390f35b6101a961040f565b6040516101b69190611257565b60405180910390f35b6101d960048036038101906101d49190611272565b610418565b005b6101f560048036038101906101f0919061129f565b61042c565b60405161020291906111cd565b60405180910390f35b610213610474565b005b61022f600480360381019061022a9190611148565b610488565b005b61024b60048036038101906102469190611148565b61050a565b005b61026760048036038101906102629190611272565b61052a565b005b6102716105a3565b60405161027e91906112db565b60405180910390f35b61028f6105cd565b60405161029c919061108d565b60405180910390f35b6102bf60048036038101906102ba9190611148565b61065f565b6040516102cc91906111a3565b60405180910390f35b6102ef60048036038101906102ea91906112f6565b6106dd565b6040516102fc91906111cd565b60405180910390f35b61031f600480360381019061031a919061129f565b610764565b005b60606003805461033090611365565b80601f016020809104026020016040519081016040528092919081815260200182805461035c90611365565b80156103a95780601f1061037e576101008083540402835291602001916103a9565b820191906000526020600020905b81548152906001019060200180831161038c57829003601f168201915b5050505050905090565b6000806103be6107ea565b90506103cb8185856107f2565b600191505092915050565b6000600254905090565b6000806103eb6107ea565b90506103f8858285610804565b610403858585610899565b60019150509392505050565b60006012905090565b6104296104236107ea565b8261098d565b50565b60008060008373ffffffffffffffffffffffffffffffffffffffff1673ffffffffffffffffffffffffffffffffffffffff168152602001908152602001600020549050919050565b61047c610a0f565b6104866000610a96565b565b610490610a0f565b6104b88261049c61040f565b600a6104a891906114f8565b836104b39190611543565b610b5c565b8173ffffffffffffffffffffffffffffffffffffffff167f3f2c9d57c068687834f0de942a9babb9e5acab57d516d3480a3c16ee165a4273826040516104fe91906111cd565b60405180910390a25050565b61051c826105166107ea565b83610804565b610526828261098d565b5050565b6105523361053661040f565b600a61054291906114f8565b8361054d9190611543565b61098d565b3373ffffffffffffffffffffffffffffffffffffffff167ffd38818f5291bf0bb3a2a48aadc06ba8757865d1dabd804585338aab3009dcb68260405161059891906111cd565b60405180910390a250565b6000600560009054906101000a900473ffffffffffffffffffffffffffffffffffffffff16905090565b6060600480546105dc90611365565b80601f016020809104026020016040519081016040528092919081815260200182805461060890611365565b80156106555780601f1061062a57610100808354040283529160200191610655565b820191906000526020600020905b81548152906001019060200180831161063857829003601f168201915b5050505050905090565b600061066961040f565b600a61067591906114f8565b60326106819190611543565b61068a3361042c565b10156106cb576040517f08c379a00000000000000000000000000000000000000000000000000000000081526004016106c2906115f7565b60405180910390fd5b6106d58383610bde565b905092915050565b6000600160008473ffffffffffffffffffffffffffffffffffffffff1673ffffffffffffffffffffffffffffffffffffffff16815260200190815260200160002060008373ffffffffffffffffffffffffffffffffffffffff1673ffffffffffffffffffffffffffffffffffffffff16815260200190815260200160002054905092915050565b61076c610a0f565b600073ffffffffffffffffffffffffffffffffffffffff168173ffffffffffffffffffffffffffffffffffffffff16036107de5760006040517f1e4fbdf70000000000000000000000000000000000000000000000000000000081526004016107d591906112db565b60405180910390fd5b6107e781610a96565b50565b600033905090565b6107ff8383836001610c01565b505050565b600061081084846106dd565b90507fffffffffffffffffffffffffffffffffffffffffffffffffffffffffffffffff8110156108935781811015610883578281836040517ffb8f41b200000000000000000000000000000000000000000000000000000000815260040161087a93929190611617565b60405180910390fd5b61089284848484036000610c01565b5b50505050565b600073ffffffffffffffffffffffffffffffffffffffff168373ffffffffffffffffffffffffffffffffffffffff160361090b5760006040517f96c6fd1e00000000000000000000000000000000000000000000000000000000815260040161090291906112db565b60405180910390fd5b600073ffffffffffffffffffffffffffffffffffffffff168273ffffffffffffffffffffffffffffffffffffffff160361097d5760006040517fec442f0500000000000000000000000000000000000000000000000000000000815260040161097491906112db565b60405180910390fd5b610988838383610dd8565b505050565b600073ffffffffffffffffffffffffffffffffffffffff168273ffffffffffffffffffffffffffffffffffffffff16036109ff5760006040517f96c6fd1e0000000000000000000000000000000000000000000000000000000081526004016109f691906112db565b60405180910390fd5b610a0b82600083610dd8565b5050565b610a176107ea565b73ffffffffffffffffffffffffffffffffffffffff16610a356105a3565b73ffffffffffffffffffffffffffffffffffffffff1614610a9457610a586107ea565b6040517f118cdaa7000000000000000000000000000000000000000000000000000000008152600401610a8b91906112db565b60405180910390fd5b565b6000600560009054906101000a900473ffffffffffffffffffffffffffffffffffffffff16905081600560006101000a81548173ffffffffffffffffffffffffffffffffffffffff021916908373ffffffffffffffffffffffffffffffffffffffff1602179055508173ffffffffffffffffffffffffffffffffffffffff168173ffffffffffffffffffffffffffffffffffffffff167f8be0079c531659141344cd1fd0a4f28419497f9722a3daafe3b4186f6b6457e060405160405180910390a35050565b600073ffffffffffffffffffffffffffffffffffffffff168273ffffffffffffffffffffffffffffffffffffffff1603610bce5760006040517fec442f05000000000000000000000000000000000000000000000000000000008152600401610bc591906112db565b60405180910390fd5b610bda60008383610dd8565b5050565b600080610be96107ea565b9050610bf6818585610899565b600191505092915050565b600073ffffffffffffffffffffffffffffffffffffffff168473ffffffffffffffffffffffffffffffffffffffff1603610c735760006040517fe602df05000000000000000000000000000000000000000000000000000000008152600401610c6a91906112db565b60405180910390fd5b600073ffffffffffffffffffffffffffffffffffffffff168373ffffffffffffffffffffffffffffffffffffffff1603610ce55760006040517f94280d62000000000000000000000000000000000000000000000000000000008152600401610cdc91906112db565b60405180910390fd5b81600160008673ffffffffffffffffffffffffffffffffffffffff1673ffffffffffffffffffffffffffffffffffffffff16815260200190815260200160002060008573ffffffffffffffffffffffffffffffffffffffff1673ffffffffffffffffffffffffffffffffffffffff168152602001908152602001600020819055508015610dd2578273ffffffffffffffffffffffffffffffffffffffff168473ffffffffffffffffffffffffffffffffffffffff167f8c5be1e5ebec7d5bd14f71427d1e84f3dd0314c0f7b2291e5b200ac8c7c3b92584604051610dc991906111cd565b60405180910390a35b50505050565b600073ffffffffffffffffffffffffffffffffffffffff168373ffffffffffffffffffffffffffffffffffffffff1603610e2a578060026000828254610e1e919061164e565b92505081905550610efd565b60008060008573ffffffffffffffffffffffffffffffffffffffff1673ffffffffffffffffffffffffffffffffffffffff16815260200190815260200160002054905081811015610eb6578381836040517fe450d38c000000000000000000000000000000000000000000000000000000008152600401610ead93929190611617565b60405180910390fd5b8181036000808673ffffffffffffffffffffffffffffffffffffffff1673ffffffffffffffffffffffffffffffffffffffff16815260200190815260200160002081905550505b600073ffffffffffffffffffffffffffffffffffffffff168273ffffffffffffffffffffffffffffffffffffffff1603610f465780600260008282540392505081905550610f93565b806000808473ffffffffffffffffffffffffffffffffffffffff1673ffffffffffffffffffffffffffffffffffffffff168152602001908152602001600020600082825401925050819055505b8173ffffffffffffffffffffffffffffffffffffffff168373ffffffffffffffffffffffffffffffffffffffff167fddf252ad1be2c89b69c2b068fc378daa952ba7f163c4a11628f55a4df523b3ef83604051610ff091906111cd565b60405180910390a3505050565b600081519050919050565b600082825260208201905092915050565b60005b8381101561103757808201518184015260208101905061101c565b60008484015250505050565b6000601f19601f8301169050919050565b600061105f82610ffd565b6110698185611008565b9350611079818560208601611019565b61108281611043565b840191505092915050565b600060208201905081810360008301526110a78184611054565b905092915050565b600080fd5b600073ffffffffffffffffffffffffffffffffffffffff82169050919050565b60006110df826110b4565b9050919050565b6110ef816110d4565b81146110fa57600080fd5b50565b60008135905061110c816110e6565b92915050565b6000819050919050565b61112581611112565b811461113057600080fd5b50565b6000813590506111428161111c565b92915050565b6000806040838503121561115f5761115e6110af565b5b600061116d858286016110fd565b925050602061117e85828601611133565b9150509250929050565b60008115159050919050565b61119d81611188565b82525050565b60006020820190506111b86000830184611194565b92915050565b6111c781611112565b82525050565b60006020820190506111e260008301846111be565b92915050565b600080600060608486031215611201576112006110af565b5b600061120f868287016110fd565b9350506020611220868287016110fd565b925050604061123186828701611133565b9150509250925092565b600060ff82169050919050565b6112518161123b565b82525050565b600060208201905061126c6000830184611248565b92915050565b600060208284031215611288576112876110af565b5b600061129684828501611133565b91505092915050565b6000602082840312156112b5576112b46110af565b5b60006112c3848285016110fd565b91505092915050565b6112d5816110d4565b82525050565b60006020820190506112f060008301846112cc565b92915050565b6000806040838503121561130d5761130c6110af565b5b600061131b858286016110fd565b925050602061132c858286016110fd565b9150509250929050565b7f4e487b7100000000000000000000000000000000000000000000000000000000600052602260045260246000fd5b6000600282049050600182168061137d57607f821691505b6020821081036113905761138f611336565b5b50919050565b7f4e487b7100000000000000000000000000000000000000000000000000000000600052601160045260246000fd5b60008160011c9050919050565b6000808291508390505b600185111561141c578086048111156113f8576113f7611396565b5b60018516156114075780820291505b8081029050611415856113c5565b94506113dc565b94509492505050565b60008261143557600190506114f1565b8161144357600090506114f1565b8160018114611459576002811461146357611492565b60019150506114f1565b60ff84111561147557611474611396565b5b8360020a91508482111561148c5761148b611396565b5b506114f1565b5060208310610133831016604e8410600b84101617156114c75782820a9050838111156114c2576114c1611396565b5b6114f1565b6114d484848460016113d2565b925090508184048111156114eb576114ea611396565b5b81810290505b9392505050565b600061150382611112565b915061150e8361123b565b925061153b7fffffffffffffffffffffffffffffffffffffffffffffffffffffffffffffffff8484611425565b905092915050565b600061154e82611112565b915061155983611112565b925082820261156781611112565b9150828204841483151761157e5761157d611396565b5b5092915050565b7f596f75206d75737420686f6c64206174206c656173742031303020474f56207460008201527f6f6b656e7320746f207472616e736665722e0000000000000000000000000000602082015250565b60006115e1603283611008565b91506115ec82611585565b604082019050919050565b60006020820190508181036000830152611610816115d4565b9050919050565b600060608201905061162c60008301866112cc565b61163960208301856111be565b61164660408301846111be565b949350505050565b600061165982611112565b915061166483611112565b925082820190508082111561167c5761167b611396565b5b9291505056fea2646970667358221220093d926820805b03937eb3793c093c3fd63e6b1ecc838bce344ac0cc6a1e115c64736f6c634300081e0033","linkReferences":{}},"methodIdentifiers":{"allowance(address,address)":"dd62ed3e","approve(address,uint256)":"095ea7b3","balanceOf(address)":"70a08231","burn(uint256)":"42966c68","burnFrom(address,uint256)":"79cc6790","burnToken(uint256)":"7b47ec1a","decimals()":"313ce567","mintToken(address,uint256)":"79c65068","name()":"06fdde03","owner()":"8da5cb5b","renounceOwnership()":"715018a6","symbol()":"95d89b41","totalSupply()":"18160ddd","transfer(address,uint256)":"a9059cbb","transferFrom(address,address,uint256)":"23b872dd","transferOwnership(address)":"f2fde38b"},"id":29}